:1000000000010020C1000000ED000000F100000030
:10001000F5000000F9000000FD00000000000000F5
:1000200000000000000000000000000001010000CE
:100030000501000000000000090100000D010000A2
:100040001101000011010000110100001101000068
:100050001101000011010000110100001101000058
:100060001101000011010000110100001101000048
:100070001101000015010000190100001D01000020
:100080002101000025010000290100002D010000D0
:1000900031010000350100000000000000000000F8
:1000A000390100003D010000410100000000000096
:1000B00045010000490100004D0100005101000010
:1000C00000B583B0074B019304E0019B1A1D019218
:1000D00000221A60019A044B9A42F6D300F0BAF853
:1000E000FEE7C0460000002000000020FEE7C046FA
:1000F000FEE7C046FEE7C046FEE7C046FEE7C04654
:10010000FEE7C046FEE7C046FEE7C046FEE7C04643
:10011000FEE7C046FEE7C046FEE7C046FEE7C04633
:10012000FEE7C046FEE7C046FEE7C046FEE7C04623
:10013000FEE7C046FEE7C046FEE7C046FEE7C04613
:10014000FEE7C046FEE7C046FEE7C046FEE7C04603
:10015000FEE7C04682B00190034B1B68019A1A600B
:10016000C04602B07047C046500C0000024B1B68EE
:100170001B6818007047C0464C0C0000024B1B68FF
:1001800004331B68180070474C0C0000024B1B68BE
:1001900008331B68180070474C0C0000024B1B68AA
:1001A0000C331B68180070474C0C0000024B1B6896
:1001B0001B6818007047C046480C0000024B1B68C3
:1001C00004331B6818007047480C0000024B1B6882
:1001D00008331B6818007047480C000030B589B020
:1001E00005000C00100019006B4607332A1C1A701A
:1001F0006B460633221C1A706B460533021C1A70BC
:1002000001AB0A1C1A70002307936B4607331B7857
:10021000DB0306936B4606331B781B0305936B4683
:1002200005331B781B02049301AB1B781B0103935E
:100230000CAB1B780293069A059BD218049BD2182C
:10024000039BD218029BD3180793079B180009B091
:1002500030BDC04630B595B04F236B4400221A70B4
:1002600000231293002311930023109300230F9374
:100270000023049300230E9300230D9300230C937B
:1002800000230B9300230A930023099303AB00225E
:100290001A7003AB00225A7003AB00229A7003ABB2
:1002A0000022DA7023236B4407221A7022236B4446
:1002B00002221A7008AB00221A801F236B4400220E
:1002C0001A7046230693D623059303ABD97803AB64
:1002D0009C7803AB5D7803AB1B7823226A441078CB
:1002E00000932B002200FFF779FF03001800FFF7AF
:1002F00031FFFFF76BFF031E26D022236B4402223F
:100300001A7003AB0722DA704F236B441B78062B5D
:100310000DD003AB02229A7003AB01225A7003ABDB
:1003200004221A704F236B4407221A700CE003ABAF
:1003300000229A7003AB04225A7003AB00221A7099
:100340004F236B4408221A704F236B441B78082BF1
:1003500000D917E39A00D94BD3181B689F46FFF7C3
:100360002DFF031E01D100231293FFF71FFF031E71
:1003700003D14F236B4401221A7023236B440222C2
:100380001A7003AB0022DA70119AFA239900100058
:1003900000F042FC0B006421180000F0B7FB0300E2
:1003A000DAB203AB9A70119B6421180000F034FCA0
:1003B0000B000A21180000F0A9FB0300DAB203AB1E
:1003C0005A70119B6421180000F026FC0B000A21D2
:1003D000180000F021FC0B00DAB203AB1A7003AB7B
:1003E000D97803AB9C7803AB5D7803AB1B782322F1
:1003F0006A44107800932B002200FFF7EFFE030001
:100400001800FFF7A7FEE2E2FFF7D8FE031E01D1B6
:1004100000230F93FFF7CAFE031E03D14F236B4443
:1004200002221A7023236B4404221A70109B3C2171
:10043000180000F06BFB0300049303AB0122DA7099
:10044000049B3C21180000F061FB03000A21180006
:1004500000F0E2FB0B00DAB203AB9A70049B3C2184
:10046000180000F0D9FB0B000A21180000F04EFB29
:100470000300DAB203AB5A70049B3C21180000F071
:10048000CBFB0B000A21180000F0C6FB0B00DAB210
:1004900003AB1A7003ABD97803AB9C7803AB5D78E0
:1004A00003AB1B7823226A44107800932B002200B0
:1004B000FFF794FE03001800FFF74CFE87E2FFF7FA
:1004C00075FE031E03D14F236B4403221A702323AE
:1004D0006B4402221A7003AB0222DA700C9AFA23E0
:1004E0009900100000F098FB0B006421180000F048
:1004F0000DFB0300DAB203AB9A700C9B6421180069
:1005000000F08AFB0B000A21180000F0FFFA03003C
:10051000DAB203AB5A700C9B6421180000F07CFB2C
:100520000B000A21180000F077FB0B00DAB203ABD6
:100530001A7003ABD97803AB9C7803AB5D7803AB3F
:100540001B7823226A44107800932B002200FFF7C7
:1005500045FE03001800FFF7FDFD38E2FFF726FE19
:10056000031E07D14F236B4404221A701F236B44D0
:1005700001221A7023236B4401221A7003AB032259
:10058000DA700A9AFA239900100000F045FB0B007C
:100590006421180000F0BAFA0300DAB203AB9A70D3
:1005A0000A9B6421180000F037FB0B000A21180099
:1005B00000F0ACFA0300DAB203AB5A700A9B642174
:1005C000180000F029FB0B000A21180000F024FBA2
:1005D0000B00DAB203AB1A7003ABD97803AB9C788B
:1005E00003AB5D7803AB1B7823226A441078009339
:1005F0002B002200FFF7F2FD03001800FFF7AAFD11
:10060000E5E1FFF7DBFD031E03D100231293002376
:100610001093FFF7CBFD031E03D14F236B4405223C
:100620001A701F236B441B78002B31D023236B449B
:1006300002221A7003AB0422DA700E9AFA23990090
:10064000100000F0E9FA0B006421180000F05EFAD7
:100650000300DAB203AB9A700E9B6421180000F01D
:10066000DBFA0B000A21180000F050FA0300DAB29E
:1006700003AB5A700E9B6421180000F0CDFA0B00FA
:100680000A21180000F0C8FA0B00DAB203AB1A70A6
:1006900003ABD97803AB9C7803AB5D7803AB1B78D5
:1006A00023226A44107800932B002200FFF796FD66
:1006B00003001800FFF74EFD89E1C046240C00003E
:1006C000FFF77CFD031E01D100230D93FFF76EFDA4
:1006D000031E03D14F236B4406221A7023236B445D
:1006E00002221A7003AB0522DA700D9AFA239900E0
:1006F000100000F091FA0B006421180000F006FAD7
:100700000300DAB203AB9A700D9B6421180000F06D
:1007100083FA0B000A21180000F0F8F90300DAB29E
:1007200003AB5A700D9B6421180000F075FA0B00A2
:100730000A21180000F070FA0B00DAB203AB1A704D
:1007400003ABD97803AB9C7803AB5D7803AB1B7824
:1007500023226A44107800932B002200FFF73EFD0D
:1007600003001800FFF7F6FC31E1FFF727FD031E39
:1007700001D100230993FFF719FD031E03D14F2375
:100780006B4400221A7023236B4401221A7003ABBE
:100790000622DA70099AFA239900100000F03CFA58
:1007A0000B006421180000F0B1F90300DAB203ABCA
:1007B0009A70099B6421180000F02EFA0B000A21A0
:1007C000180000F0A3F90300DAB203AB5A70099BDA
:1007D0006421180000F020FA0B000A21180000F034
:1007E0001BFA0B00DAB203AB1A7003ABD97803AB78
:1007F0009C7803AB5D7803AB1B7823226A441078A6
:1008000000932B002200FFF7E9FC03001800FFF71C
:10081000A1FCDCE0FFF7CAFC031E21D122236B44BC
:100820001B78002B07D022236B441A7822236B44B9
:10083000013A1A7014E04F236B4400221A7003AB84
:100840009B781A0064235A4303AB5B7819000B00B2
:100850009B005B185B00D31803AA12789B180593C2
:10086000FFF7ACFC031E18D122236B441B78222215
:100870006A44127803A98A5C0132D1B203AAD15426
:1008800022236B441B7803AAD35C092B05D92223AE
:100890006B441B7803AA0021D15423236B4401220B
:1008A0001A7003ABD97803AB9C7803AB5D7803ABCC
:1008B0001B7823226A44107800932B002200FFF754
:1008C0008DFC03001800FFF745FC80E0FFF76EFC8D
:1008D000031E21D122236B441B78002B07D0222337
:1008E0006B441A7822236B44013A1A7014E04F23A8
:1008F0006B4400221A7003AB9B781A0064235A439E
:1009000003AB5B7819000B009B005B185B00D318EE
:1009100003AA12789B180693FFF750FC031E18D108
:1009200022236B441B7822226A44127803A98A5C32
:100930000132D1B203AAD15422236B441B7803AAFB
:10094000D35C092B05D922236B441B7803AA002111
:10095000D15423236B4401221A7003ABD97803AB23
:100960009C7803AB5D7803AB1B7823226A44107834
:1009700000932B002200FFF731FC03001800FFF763
:10098000E9FB24E003AB08221A7003AB08225A707B
:1009900003AB08229A7003AB0022DA7023236B4466
:1009A00007221A7003ABD97803AB9C7803AB5D7850
:1009B00003AB1B7823226A44107800932B0022009B
:1009C000FFF70CFC03001800FFF7C4FBC046FFF75D
:1009D000CDFB031E32D1FFF7D9FB031E10D0FFF76A
:1009E000D5FB03000B93059B414A53430B99180019
:1009F00000F08CF803000C93129B0133129301E07A
:100A000000230C930F9A0B9BD3180F9308AB002273
:100A10009B5E002B0BDB0B9B99B208AB08AA1288DC
:100A20008A181A801F236B4400221A7006E008AB54
:100A300000221A801F236B4401221A70FFF7A6FBC5
:100A4000031E01D100230C93129B059A534329499D
:100A5000180000F05BF8030011930F9BDB0B109361
:100A60000C9B254A934201D9234B0C93129B059A68
:100A700053431F4A53430F99180000F047F80300EF
:100A80000E93FFF78BFB030019001C4800F03EF8A3
:100A900003000A930A9B0521180000F0BDF80B1E05
:100AA0000AD00A9B0521180000F030F803005A1CF8
:100AB00013009B009B180A930A9B114A934201D989
:100AC000104B0A930C9A0D9B9A4201D30C9B0D93E9
:100AD000069B129A5343059A5A4313005B009B18D6
:100AE0000949180000F012F803000993FFF701FC10
:100AF000142E000010270000E703000064FF1D0013
:100B0000E2030000E303000020A1070000224308E5
:100B10008B4274D303098B425FD3030A8B4244D3C5
:100B2000030B8B4228D3030C8B420DD3FF22090207
:100B300012BA030C8B4202D31212090265D0030BC6
:100B40008B4219D300E0090AC30B8B4201D3CB03BC
:100B5000C01A5241830B8B4201D38B03C01A5241FE
:100B6000430B8B4201D34B03C01A5241030B8B4200
:100B700001D30B03C01A5241C30A8B4201D3CB02EB
:100B8000C01A5241830A8B4201D38B02C01A5241D0
:100B9000430A8B4201D34B02C01A5241030A8B42D3
:100BA00001D30B02C01A5241CDD2C3098B4201D3EB
:100BB000CB01C01A524183098B4201D38B01C01A69
:100BC000524143098B4201D34B01C01A52410309E0
:100BD0008B4201D30B01C01A5241C3088B4201D38F
:100BE000CB00C01A524183088B4201D38B00C01A3C
:100BF000524143088B4201D34B00C01A5241411A63
:100C000000D20146524110467047FFE701B500206F
:100C100000F006F802BDC0460029F7D076E770471D
:100C20007047C0465E03000008040000BE040000D8
:100C30005C05000002060000C00600006A07000014
:080C400014080000CC080000BC
:0C0C4800000000400000005000000060B0
:00000001FF
