:1000000000010020C1000000ED000000F100000030
:10001000F5000000F9000000FD00000000000000F5
:1000200000000000000000000000000001010000CE
:100030000501000000000000090100000D010000A2
:100040001101000011010000110100001101000068
:100050001101000011010000110100001101000058
:100060001101000011010000110100001101000048
:100070001101000015010000190100001D01000020
:100080002101000025010000290100002D010000D0
:1000900031010000350100000000000000000000F8
:1000A000390100003D010000410100000000000096
:1000B00045010000490100004D0100005101000010
:1000C00000B583B0074B019304E0019B1A1D019218
:1000D00000221A60019A044B9A42F6D300F0BAF853
:1000E000FEE7C0460000002000000020FEE7C046FA
:1000F000FEE7C046FEE7C046FEE7C046FEE7C04654
:10010000FEE7C046FEE7C046FEE7C046FEE7C04643
:10011000FEE7C046FEE7C046FEE7C046FEE7C04633
:10012000FEE7C046FEE7C046FEE7C046FEE7C04623
:10013000FEE7C046FEE7C046FEE7C046FEE7C04613
:10014000FEE7C046FEE7C046FEE7C046FEE7C04603
:10015000FEE7C04682B00190034B1B68019A1A600B
:10016000C04602B07047C046540C0000024B1B68EA
:100170001B6818007047C046500C0000024B1B68FB
:1001800004331B6818007047500C0000024B1B68BA
:1001900008331B6818007047500C0000024B1B68A6
:1001A0000C331B6818007047500C0000024B1B6892
:1001B0001B6818007047C0464C0C0000024B1B68BF
:1001C00004331B68180070474C0C0000024B1B687E
:1001D00008331B68180070474C0C000030B589B01C
:1001E00005000C00100019006B4607332A1C1A701A
:1001F0006B460633221C1A706B460533021C1A70BC
:1002000001AB0A1C1A70002307936B4607331B7857
:10021000DB0306936B4606331B781B0305936B4683
:1002200005331B781B02049301AB1B781B0103935E
:100230000CAB1B780293069A059BD218049BD2182C
:10024000039BD218029BD3180793079B180009B091
:1002500030BDC04630B595B04F236B4400221A70B4
:1002600000231293002311930023109300230F9374
:100270000023049300230E9300230D9300230C937B
:1002800000230B9300230A930023099303AB00225E
:100290001A7003AB00225A7003AB00229A7003ABB2
:1002A0000022DA7023236B4407221A7022236B4446
:1002B00002221A7008AB00221A801F236B4400220E
:1002C0001A7046230693D623059303ABD97803AB64
:1002D0009C7803AB5D7803AB1B7823226A441078CB
:1002E00000932B002200FFF779FF03001800FFF7AF
:1002F00031FFFFF76BFF031E26D022236B4402223F
:100300001A7003AB0722DA704F236B441B78062B5D
:100310000DD003AB02229A7003AB01225A7003ABDB
:1003200004221A704F236B4407221A700CE003ABAF
:1003300000229A7003AB04225A7003AB00221A7099
:100340004F236B4408221A704F236B441B78082BF1
:1003500000D91FE39A00DD4BD3181B689F46FFF7B7
:100360002DFF031E01D100231293FFF71FFF031E71
:1003700003D14F236B4401221A7023236B440222C2
:100380001A7003AB0022DA70119AFA239900100058
:1003900000F044FC0B006421180000F0B9FB0300DE
:1003A000DAB203AB9A70119B6421180000F036FC9E
:1003B0000B000A21180000F0ABFB0300DAB203AB1C
:1003C0005A70119B6421180000F028FC0B000A21D0
:1003D000180000F023FC0B00DAB203AB1A7003AB79
:1003E000D97803AB9C7803AB5D7803AB1B782322F1
:1003F0006A44107800932B002200FFF7EFFE030001
:100400001800FFF7A7FEEAE2FFF7D8FE031E01D1AE
:1004100000230F93FFF7CAFE031E07D14F236B443F
:1004200002221A701F236B4401221A7023236B448B
:1004300004221A70109B3C21180000F069FB030095
:10044000049303AB0122DA70049B3C21180000F0F6
:100450005FFB03000A21180000F0E0FB0B00DAB29A
:1004600003AB9A70049B3C21180000F0D7FB0B00F3
:100470000A21180000F04CFB0300DAB203AB5A70FB
:10048000049B3C21180000F0C9FB0B000A21180056
:1004900000F0C4FB0B00DAB203AB1A7003ABD978DF
:1004A00003AB9C7803AB5D7803AB1B7823226A44D3
:1004B000107800932B002200FFF790FE0300180035
:1004C000FFF748FE8BE2FFF771FE031E03D14F23B7
:1004D0006B4403221A701F236B441B78002B31D00E
:1004E00023236B4402221A7003AB0222DA700C9AA7
:1004F000FA239900100000F091FB0B006421180012
:1005000000F006FB0300DAB203AB9A700C9B642187
:10051000180000F083FB0B000A21180000F0F8FA25
:100520000300DAB203AB5A700C9B6421180000F090
:1005300075FB0B000A21180000F070FB0B00DAB20B
:1005400003AB1A7003ABD97803AB9C7803AB5D782F
:1005500003AB1B7823226A44107800932B002200FF
:10056000FFF73CFE03001800FFF7F4FD37E2FFF74A
:100570001DFE031E07D14F236B4404221A701F2354
:100580006B4401221A7023236B4401221A7003ABBF
:100590000322DA700A9AFA239900100000F03EFB59
:1005A0000B006421180000F0B3FA0300DAB203ABC9
:1005B0009A700A9B6421180000F030FB0B000A219E
:1005C000180000F0A5FA0300DAB203AB5A700A9BD8
:1005D0006421180000F022FB0B000A21180000F033
:1005E0001DFB0B00DAB203AB1A7003ABD97803AB77
:1005F0009C7803AB5D7803AB1B7823226A441078A8
:1006000000932B002200FFF7E9FD03001800FFF71D
:10061000A1FDE4E1FFF7D2FD031E03D100231293F5
:1006200000231093FFF7C2FD031E03D14F236B4439
:1006300005221A701F236B441B78002B31D0232313
:100640006B4402221A7003AB0422DA700E9AFA236A
:100650009900100000F0E2FA0B006421180000F08D
:1006600057FA0300DAB203AB9A700E9B64211800AC
:1006700000F0D4FA0B000A21180000F049FA030038
:10068000DAB203AB5A700E9B6421180000F0C6FA70
:100690000B000A21180000F0C1FA0B00DAB203AB1C
:1006A0001A7003ABD97803AB9C7803AB5D7803ABCE
:1006B0001B7823226A44107800932B002200FFF756
:1006C0008DFD03001800FFF745FD88E1280C0000B0
:1006D000FFF774FD031E01D100230D93FFF766FDA4
:1006E000031E03D14F236B4406221A7023236B444D
:1006F00002221A7003AB0522DA700D9AFA239900D0
:10070000100000F08BFA0B006421180000F000FAD2
:100710000300DAB203AB9A700D9B6421180000F05D
:100720007DFA0B000A21180000F0F2F90300DAB29A
:1007300003AB5A700D9B6421180000F06FFA0B0098
:100740000A21180000F06AFA0B00DAB203AB1A7043
:1007500003ABD97803AB9C7803AB5D7803AB1B7814
:1007600023226A44107800932B002200FFF736FD05
:1007700003001800FFF7EEFC31E1FFF71FFD031E39
:1007800001D100230993FFF711FD031E03D14F236D
:100790006B4400221A7023236B4401221A7003ABAE
:1007A0000622DA70099AFA239900100000F036FA4E
:1007B0000B006421180000F0ABF90300DAB203ABC0
:1007C0009A70099B6421180000F028FA0B000A2196
:1007D000180000F09DF90300DAB203AB5A70099BD0
:1007E0006421180000F01AFA0B000A21180000F02A
:1007F00015FA0B00DAB203AB1A7003ABD97803AB6E
:100800009C7803AB5D7803AB1B7823226A44107895
:1008100000932B002200FFF7E1FC03001800FFF714
:1008200099FCDCE0FFF7C2FC031E21D122236B44BC
:100830001B78002B07D022236B441A7822236B44A9
:10084000013A1A7014E04F236B4400221A7003AB74
:100850009B781A0064235A4303AB5B7819000B00A2
:100860009B005B185B00D31803AA12789B180593B2
:10087000FFF7A4FC031E18D122236B441B7822220D
:100880006A44127803A98A5C0132D1B203AAD15416
:1008900022236B441B7803AAD35C092B05D922239E
:1008A0006B441B7803AA0021D15423236B440122FB
:1008B0001A7003ABD97803AB9C7803AB5D7803ABBC
:1008C0001B7823226A44107800932B002200FFF744
:1008D00085FC03001800FFF73DFC80E0FFF766FC95
:1008E000031E21D122236B441B78002B07D0222327
:1008F0006B441A7822236B44013A1A7014E04F2398
:100900006B4400221A7003AB9B781A0064235A438D
:1009100003AB5B7819000B009B005B185B00D318DE
:1009200003AA12789B180693FFF748FC031E18D100
:1009300022236B441B7822226A44127803A98A5C22
:100940000132D1B203AAD15422236B441B7803AAEB
:10095000D35C092B05D922236B441B7803AA002101
:10096000D15423236B4401221A7003ABD97803AB13
:100970009C7803AB5D7803AB1B7823226A44107824
:1009800000932B002200FFF729FC03001800FFF75B
:10099000E1FB24E003AB08221A7003AB08225A7073
:1009A00003AB08229A7003AB0022DA7023236B4456
:1009B00007221A7003ABD97803AB9C7803AB5D7840
:1009C00003AB1B7823226A44107800932B0022008B
:1009D000FFF704FC03001800FFF7BCFBC046FFF75D
:1009E000C5FB031E32D1FFF7D1FB031E10D0FFF76A
:1009F000CDFB03000B93059B3E4A53430B99180014
:100A000000F086F803000C93129B0133129301E06F
:100A100000230C930F9A0B9BD3180F9308AB002263
:100A20009B5E002B0BDB0B9B99B208AB08AA1288CC
:100A30008A181A801F236B4400221A7006E008AB44
:100A400000221A801F236B4401221A70129B059A00
:100A500053432949180000F05BF8030011930F9BE2
:100A6000DB0B10930C9B254A934201D9234B0C932B
:100A7000129B059A53431F4A53430F99180000F0E5
:100A800047F803000E93FFF789FB030019001C4889
:100A900000F03EF803000A930A9B0521180000F0BD
:100AA000BDF80B1E0AD00A9B0521180000F030F893
:100AB00003005A1C13009B009B180A930A9B114ABF
:100AC000934201D9104B0A930C9A0D9B9A4201D381
:100AD0000C9B0D93069B129A5343059A5A4313009D
:100AE0005B009B180949180000F012F803000993F5
:100AF000FFF7FFFB142E000010270000E7030000A3
:100B000064FF1D00E2030000E303000020A10700D2
:100B1000002243088B4274D303098B425FD3030A3C
:100B20008B4244D3030B8B4228D3030C8B420DD34F
:100B3000FF22090212BA030C8B4202D312120902DD
:100B400065D0030B8B4219D300E0090AC30B8B421B
:100B500001D3CB03C01A5241830B8B4201D38B03C9
:100B6000C01A5241430B8B4201D34B03C01A52416E
:100B7000030B8B4201D30B03C01A5241C30A8B42B1
:100B800001D3CB02C01A5241830A8B4201D38B029C
:100B9000C01A5241430A8B4201D34B02C01A524140
:100BA000030A8B4201D30B02C01A5241CDD2C309B2
:100BB0008B4201D3CB01C01A524183098B4201D32E
:100BC0008B01C01A524143098B4201D34B01C01A19
:100BD000524103098B4201D30B01C01A5241C30891
:100BE0008B4201D3CB00C01A524183088B4201D300
:100BF0008B00C01A524143088B4201D34B00C01AEC
:100C00005241411A00D20146524110467047FFE757
:100C100001B5002000F006F802BDC0460029F7D05B
:100C200076E770477047C0465E0300000804000086
:100C3000C60400006E05000014060000D006000087
:0C0C40007A07000024080000DC08000017
:0C0C4C00000000400000005000000060AC
:00000001FF
